{
  "_format": "hh-sol-artifact-1",
  "contractName": "Splitwise",
  "sourceName": "contracts/Splitwise.sol",
  "abi": [
    {
      "inputs": [
        {
          "internalType": "address",
          "name": "tokenAddress",
          "type": "address"
        }
      ],
      "stateMutability": "nonpayable",
      "type": "constructor"
    },
    {
      "inputs": [],
      "name": "ReentrancyGuardReentrantCall",
      "type": "error"
    },
    {
      "anonymous": false,
      "inputs": [
        {
          "indexed": true,
          "internalType": "uint256",
          "name": "groupId",
          "type": "uint256"
        },
        {
          "indexed": true,
          "internalType": "address",
          "name": "debtor",
          "type": "address"
        },
        {
          "indexed": true,
          "internalType": "address",
          "name": "creditor",
          "type": "address"
        },
        {
          "indexed": false,
          "internalType": "uint256",
          "name": "amount",
          "type": "uint256"
        }
      ],
      "name": "DebtSettled",
      "type": "event"
    },
    {
      "anonymous": false,
      "inputs": [
        {
          "indexed": true,
          "internalType": "uint256",
          "name": "groupId",
          "type": "uint256"
        },
        {
          "indexed": false,
          "internalType": "bytes32",
          "name": "edgesHash",
          "type": "bytes32"
        }
      ],
      "name": "DebtsSimplified",
      "type": "event"
    },
    {
      "anonymous": false,
      "inputs": [
        {
          "indexed": true,
          "internalType": "uint256",
          "name": "groupId",
          "type": "uint256"
        },
        {
          "indexed": true,
          "internalType": "address",
          "name": "payer",
          "type": "address"
        },
        {
          "indexed": false,
          "internalType": "uint256",
          "name": "amount",
          "type": "uint256"
        },
        {
          "indexed": false,
          "internalType": "bytes32",
          "name": "expenseHash",
          "type": "bytes32"
        }
      ],
      "name": "ExpenseRegistered",
      "type": "event"
    },
    {
      "anonymous": false,
      "inputs": [
        {
          "indexed": true,
          "internalType": "uint256",
          "name": "groupId",
          "type": "uint256"
        },
        {
          "indexed": false,
          "internalType": "address[]",
          "name": "members",
          "type": "address[]"
        }
      ],
      "name": "GroupCreated",
      "type": "event"
    },
    {
      "anonymous": false,
      "inputs": [
        {
          "indexed": true,
          "internalType": "uint256",
          "name": "groupId",
          "type": "uint256"
        },
        {
          "indexed": false,
          "internalType": "address",
          "name": "member",
          "type": "address"
        }
      ],
      "name": "MemberJoined",
      "type": "event"
    },
    {
      "anonymous": false,
      "inputs": [
        {
          "indexed": true,
          "internalType": "uint256",
          "name": "groupId",
          "type": "uint256"
        },
        {
          "indexed": false,
          "internalType": "bytes32",
          "name": "edgesHash",
          "type": "bytes32"
        },
        {
          "indexed": false,
          "internalType": "address",
          "name": "submitter",
          "type": "address"
        }
      ],
      "name": "SimplificationSubmitted",
      "type": "event"
    },
    {
      "inputs": [
        {
          "internalType": "uint256",
          "name": "gid",
          "type": "uint256"
        },
        {
          "components": [
            {
              "internalType": "address",
              "name": "debtor",
              "type": "address"
            },
            {
              "internalType": "address",
              "name": "creditor",
              "type": "address"
            },
            {
              "internalType": "uint256",
              "name": "amount",
              "type": "uint256"
            }
          ],
          "internalType": "struct Splitwise.SimplifiedEdge[]",
          "name": "edges",
          "type": "tuple[]"
        },
        {
          "internalType": "bytes32",
          "name": "edgesHash",
          "type": "bytes32"
        }
      ],
      "name": "applySimplification",
      "outputs": [],
      "stateMutability": "nonpayable",
      "type": "function"
    },
    {
      "inputs": [
        {
          "internalType": "uint256",
          "name": "gid",
          "type": "uint256"
        },
        {
          "internalType": "bytes32",
          "name": "edgesHash",
          "type": "bytes32"
        }
      ],
      "name": "commitSimplification",
      "outputs": [],
      "stateMutability": "nonpayable",
      "type": "function"
    },
    {
      "inputs": [
        {
          "internalType": "address[]",
          "name": "members",
          "type": "address[]"
        }
      ],
      "name": "createGroup",
      "outputs": [],
      "stateMutability": "nonpayable",
      "type": "function"
    },
    {
      "inputs": [
        {
          "internalType": "uint256",
          "name": "",
          "type": "uint256"
        },
        {
          "internalType": "address",
          "name": "",
          "type": "address"
        },
        {
          "internalType": "address",
          "name": "",
          "type": "address"
        }
      ],
      "name": "debts",
      "outputs": [
        {
          "internalType": "uint256",
          "name": "",
          "type": "uint256"
        }
      ],
      "stateMutability": "view",
      "type": "function"
    },
    {
      "inputs": [
        {
          "internalType": "uint256",
          "name": "gid",
          "type": "uint256"
        }
      ],
      "name": "getMembers",
      "outputs": [
        {
          "internalType": "address[]",
          "name": "",
          "type": "address[]"
        }
      ],
      "stateMutability": "view",
      "type": "function"
    },
    {
      "inputs": [],
      "name": "groupCount",
      "outputs": [
        {
          "internalType": "uint256",
          "name": "",
          "type": "uint256"
        }
      ],
      "stateMutability": "view",
      "type": "function"
    },
    {
      "inputs": [
        {
          "internalType": "uint256",
          "name": "gid",
          "type": "uint256"
        }
      ],
      "name": "joinGroup",
      "outputs": [],
      "stateMutability": "nonpayable",
      "type": "function"
    },
    {
      "inputs": [
        {
          "internalType": "uint256",
          "name": "gid",
          "type": "uint256"
        },
        {
          "internalType": "uint256",
          "name": "amount",
          "type": "uint256"
        },
        {
          "internalType": "uint8",
          "name": "splitType",
          "type": "uint8"
        },
        {
          "internalType": "address[]",
          "name": "parts",
          "type": "address[]"
        },
        {
          "internalType": "uint256[]",
          "name": "values",
          "type": "uint256[]"
        }
      ],
      "name": "registerExpense",
      "outputs": [],
      "stateMutability": "nonpayable",
      "type": "function"
    },
    {
      "inputs": [
        {
          "internalType": "uint256",
          "name": "gid",
          "type": "uint256"
        },
        {
          "internalType": "address",
          "name": "creditor",
          "type": "address"
        },
        {
          "internalType": "uint256",
          "name": "amount",
          "type": "uint256"
        }
      ],
      "name": "settleDebt",
      "outputs": [],
      "stateMutability": "nonpayable",
      "type": "function"
    },
    {
      "inputs": [
        {
          "internalType": "bytes32",
          "name": "",
          "type": "bytes32"
        }
      ],
      "name": "submittedSimplifications",
      "outputs": [
        {
          "internalType": "bool",
          "name": "",
          "type": "bool"
        }
      ],
      "stateMutability": "view",
      "type": "function"
    },
    {
      "inputs": [],
      "name": "token",
      "outputs": [
        {
          "internalType": "contract IERC20",
          "name": "",
          "type": "address"
        }
      ],
      "stateMutability": "view",
      "type": "function"
    }
  ],
  "bytecode": "0x60a060405234801561001057600080fd5b506040516119d43803806119d483398101604081905261002f91610094565b60016000556001600160a01b0381166100835760405162461bcd60e51b81526020600482015260126024820152715a65726f20746f6b656e206164647265737360701b604482015260640160405180910390fd5b6001600160a01b03166080526100c4565b6000602082840312156100a657600080fd5b81516001600160a01b03811681146100bd57600080fd5b9392505050565b6080516118ee6100e6600039600081816101c7015261037b01526118ee6000f3fe608060405234801561001057600080fd5b50600436106100a95760003560e01c80638f23b326116100715780638f23b32614610160578063bd5f148914610169578063c477ecab1461017c578063d29b1ca31461019c578063eed02e4b146101af578063fc0c546a146101c257600080fd5b80632e6dcf5f146100ae5780635da8fd43146100c35780635f2424a4146100fb57806368e9eacc1461010e57806377d4667a1461014d575b600080fd5b6100c16100bc36600461130e565b610201565b005b6100e66100d1366004611344565b60046020526000908152604090205460ff1681565b60405190151581526020015b60405180910390f35b6100c16101093660046113a9565b610403565b61013f61011c36600461144a565b600260209081526000938452604080852082529284528284209052825290205481565b6040519081526020016100f2565b6100c161015b366004611486565b61058d565b61013f60015481565b6100c161017736600461150e565b6109fe565b61018f61018a366004611344565b610c50565b6040516100f29190611550565b6100c16101aa36600461159c565b610cf1565b6100c16101bd366004611344565b610dc1565b6101e97f000000000000000000000000000000000000000000000000000000000000000081565b6040516001600160a01b0390911681526020016100f2565b610209610ecb565b600083815260036020526040902060020154839060ff166102455760405162461bcd60e51b815260040161023c906115be565b60405180910390fd5b6000848152600360209081526040808320338452600101909152902054849060ff166102835760405162461bcd60e51b815260040161023c906115e7565b600085815260026020908152604080832033845282528083206001600160a01b0388168452909152902054838110156102ed5760405162461bcd60e51b815260206004820152600c60248201526b115e18d959591cc81919589d60a21b604482015260640161023c565b6001600160a01b03851661033b5760405162461bcd60e51b81526020600482015260156024820152745a65726f206372656469746f72206164647265737360581b604482015260640161023c565b6103458482611629565b6000878152600260209081526040808320338085529083528184206001600160a01b038b8116865293529220929092556103a3917f000000000000000000000000000000000000000000000000000000000000000016908787610ef5565b846001600160a01b0316336001600160a01b0316877f16c014bb6d1c6cc25e4d9c2ffff2d5052bc083462038999100ead76edf97bee0876040516103e991815260200190565b60405180910390a45050506103fe6001600055565b505050565b600087815260036020526040902060020154879060ff166104365760405162461bcd60e51b815260040161023c906115be565b6000888152600360209081526040808320338452600101909152902054889060ff166104745760405162461bcd60e51b815260040161023c906115e7565b60018510156104b75760405162461bcd60e51b815260206004820152600f60248201526e4e6f207061727469636970616e747360881b604482015260640161023c565b60008981526003602052604081206004810180549192918c918c918c918c918c918c918c91896104e683611642565b919050556040516020016105019897969594939291906116a3565b6040516020818303038152906040528051906020012090508860ff16600003610535576105308b8b8a8a61100b565b610543565b6105438b8b8a8a8a8a61111a565b604080518b81526020810183905233918d917f156d674ff4bc817afdbddb8c61dea10f992d75e423ecc89729efcc25ba1f1bfe910160405180910390a35050505050505050505050565b600084815260036020526040902060020154849060ff166105c05760405162461bcd60e51b815260040161023c906115be565b6000858152600360209081526040808320338452600101909152902054859060ff166105fe5760405162461bcd60e51b815260040161023c906115e7565b60008381526004602052604090205460ff166106515760405162461bcd60e51b815260206004820152601260248201527112185cda081b9bdd0818dbdb5b5a5d1d195960721b604482015260640161023c565b8484604051602001610664929190611710565b6040516020818303038152906040528051906020012083146106b85760405162461bcd60e51b815260206004820152600d60248201526c496e76616c696420656467657360981b604482015260640161023c565b6000868152600360205260408120905b81548110156107a35760008260000182815481106106e8576106e861177f565b60009182526020822001546001600160a01b031691505b835481101561079957600084600001828154811061071f5761071f61177f565b60009182526020808320909101548d83526002825260408084206001600160a01b038881168652908452818520921680855291909252912054909150156107905760008b81526002602090815260408083206001600160a01b03808816855290835281842090851684529091528120555b506001016106ff565b50506001016106c8565b5060005b8581101561099b57368787838181106107c2576107c261177f565b606002919091019150506001830160006107df6020840184611795565b6001600160a01b0316815260208101919091526040016000205460ff166108395760405162461bcd60e51b815260206004820152600e60248201526d24b73b30b634b2103232b13a37b960911b604482015260640161023c565b60018301600061084f6040840160208501611795565b6001600160a01b0316815260208101919091526040016000205460ff166108ab5760405162461bcd60e51b815260206004820152601060248201526f24b73b30b634b21031b932b234ba37b960811b604482015260640161023c565b6108bb6040820160208301611795565b6001600160a01b03166108d16020830183611795565b6001600160a01b03160361091f5760405162461bcd60e51b815260206004820152601560248201527414d95b198b5919589d081b9bdd08185b1b1bddd959605a1b604482015260640161023c565b60008981526002602090815260408083209084013592909161094390850185611795565b6001600160a01b03166001600160a01b0316815260200190815260200160002060008360200160208101906109789190611795565b6001600160a01b03168152602081019190915260400160002055506001016107a7565b506003810184905560008481526004602052604090819020805460ff191690555187907f0db7c00f5847e869e978463c8cc04ba274f54d001752a1bd44914b60513383bd906109ed9087815260200190565b60405180910390a250505050505050565b6002811015610a435760405162461bcd60e51b81526020600482015260116024820152704e656564203e3d2032206d656d6265727360781b604482015260640161023c565b6001805460009182610a5483611642565b90915550600081815260036020526040812060028101805460ff191660011790559192505b83811015610b9d576000858583818110610a9557610a9561177f565b9050602002016020810190610aaa9190611795565b6001600160a01b038116600090815260018501602052604090205490915060ff1615610b0b5760405162461bcd60e51b815260206004820152601060248201526f223ab83634b1b0ba329036b2b6b132b960811b604482015260640161023c565b6001600160a01b038116610b505760405162461bcd60e51b815260206004820152600c60248201526b5a65726f206164647265737360a01b604482015260640161023c565b6001600160a01b031660008181526001848101602090815260408320805460ff19168317905585548083018755868452922090910180546001600160a01b03191690921790915501610a79565b506040805160008082526020820190925290610be1565b6040805160608101825260008082526020808301829052928201528252600019909201910181610bb45790505b50604051602001610bf291906117b7565b604051602081830303815290604052805190602001208160030181905550817f56ee4b03d1f085bcbcafffc01ee542642270d5b8b17177648fd5ce6b0b8de5dc8585604051610c42929190611816565b60405180910390a250505050565b600081815260036020526040902060020154606090829060ff16610c865760405162461bcd60e51b815260040161023c906115be565b60008381526003602090815260409182902080548351818402810184019094528084529091830182828015610ce457602002820191906000526020600020905b81546001600160a01b03168152600190910190602001808311610cc6575b5050505050915050919050565b600082815260036020526040902060020154829060ff16610d245760405162461bcd60e51b815260040161023c906115be565b6000838152600360209081526040808320338452600101909152902054839060ff16610d625760405162461bcd60e51b815260040161023c906115e7565b60008381526004602052604090819020805460ff191660011790555184907f28d43d48e0ad94fda1db5818c6cbc3a094158cae83d2db33ff05a1ea7d57775b90610c4290869033909182526001600160a01b0316602082015260400190565b600081815260036020526040902060020154819060ff16610df45760405162461bcd60e51b815260040161023c906115be565b6000828152600360209081526040808320338452600181019092529091205460ff1615610e545760405162461bcd60e51b815260206004820152600e60248201526d105b1c9958591e481a9bda5b995960921b604482015260640161023c565b336000818152600183810160209081526040808420805460ff191684179055855492830186558584529281902090910180546001600160a01b03191684179055905191825284917f78da64a590c3052953ad9e0a5546bbf12bb68ae7634e3fb2a774e22a8c6557c1910160405180910390a2505050565b600260005403610eee57604051633ee5aeb560e01b815260040160405180910390fd5b6002600055565b604080516001600160a01b0385811660248301528481166044830152606480830185905283518084039091018152608490920183526020820180516001600160e01b03166323b872dd60e01b1790529151600092839290881691610f599190611832565b6000604051808303816000865af19150503d8060008114610f96576040519150601f19603f3d011682016040523d82523d6000602084013e610f9b565b606091505b5091509150818015610fc5575080511580610fc5575080806020019051810190610fc59190611861565b6110035760405162461bcd60e51b815260206004820152600f60248201526e151c985b9cd9995c8819985a5b1959608a1b604482015260640161023c565b505050505050565b8060006110188286611883565b60008781526003602052604081209192505b838110156111105760008686838181106110465761104661177f565b905060200201602081019061105b9190611795565b6001600160a01b038116600090815260018501602052604090205490915060ff166110b75760405162461bcd60e51b815260206004820152600c60248201526b04e6f7420696e2067726f75760a41b604482015260640161023c565b6001600160a01b03811633146111075760008981526002602090815260408083206001600160a01b03851684528252808320338452909152812080548692906111019084906118a5565b90915550505b5060010161102a565b5050505050505050565b8281811461115c5760405162461bcd60e51b815260206004820152600f60248201526e0acc2d8eacae640dad2e6dac2e8c6d608b1b604482015260640161023c565b6000878152600360205260408120815b838110156111a2578585828181106111865761118661177f565b905060200201358361119891906118a5565b925060010161116c565b508782146111e25760405162461bcd60e51b815260206004820152600d60248201526c14dd5b48084f48185b5bdd5b9d609a1b604482015260640161023c565b60005b838110156112e65760008888838181106112015761120161177f565b90506020020160208101906112169190611795565b6001600160a01b038116600090815260018501602052604090205490915060ff166112725760405162461bcd60e51b815260206004820152600c60248201526b04e6f7420696e2067726f75760a41b604482015260640161023c565b6001600160a01b03811633146112dd578686838181106112945761129461177f565b60008e81526002602090815260408083206001600160a01b03881684528252808320338452825282208054939091029490940135939250906112d79084906118a5565b90915550505b506001016111e5565b50505050505050505050565b80356001600160a01b038116811461130957600080fd5b919050565b60008060006060848603121561132357600080fd5b83359250611333602085016112f2565b929592945050506040919091013590565b60006020828403121561135657600080fd5b5035919050565b60008083601f84011261136f57600080fd5b50813567ffffffffffffffff81111561138757600080fd5b6020830191508360208260051b85010111156113a257600080fd5b9250929050565b600080600080600080600060a0888a0312156113c457600080fd5b8735965060208801359550604088013560ff811681146113e357600080fd5b9450606088013567ffffffffffffffff8111156113ff57600080fd5b61140b8a828b0161135d565b909550935050608088013567ffffffffffffffff81111561142b57600080fd5b6114378a828b0161135d565b989b979a50959850939692959293505050565b60008060006060848603121561145f57600080fd5b8335925061146f602085016112f2565b915061147d604085016112f2565b90509250925092565b6000806000806060858703121561149c57600080fd5b84359350602085013567ffffffffffffffff8111156114ba57600080fd5b8501601f810187136114cb57600080fd5b803567ffffffffffffffff8111156114e257600080fd5b8760206060830284010111156114f757600080fd5b949760209190910196509394604001359392505050565b6000806020838503121561152157600080fd5b823567ffffffffffffffff81111561153857600080fd5b6115448582860161135d565b90969095509350505050565b602080825282518282018190526000918401906040840190835b818110156115915783516001600160a01b031683526020938401939092019160010161156a565b509095945050505050565b600080604083850312156115af57600080fd5b50508035926020909101359150565b6020808252600f908201526e11dc9bdd5c081b9bdd08199bdd5b99608a1b604082015260600190565b6020808252601290820152712737ba10309033b937bab81036b2b6b132b960711b604082015260600190565b634e487b7160e01b600052601160045260246000fd5b8181038181111561163c5761163c611613565b92915050565b60006001820161165457611654611613565b5060010190565b81835260208301925060008160005b84811015611699576001600160a01b03611683836112f2565b168652602095860195919091019060010161166a565b5093949350505050565b88815287602082015260ff8716604082015260c0606082015260006116cc60c08301878961165b565b82810360808401528481526001600160fb1b038511156116eb57600080fd5b8460051b8087602084013760a093909301939093525001602001979650505050505050565b6020808252810182905260008360408301825b85811015611775576001600160a01b0361173c846112f2565b1682526001600160a01b03611753602085016112f2565b1660208301526040838101359083015260609283019290910190600101611723565b5095945050505050565b634e487b7160e01b600052603260045260246000fd5b6000602082840312156117a757600080fd5b6117b0826112f2565b9392505050565b602080825282518282018190526000918401906040840190835b8181101561159157835180516001600160a01b0390811685526020808301519091168186015260409182015191850191909152909301926060909201916001016117d1565b60208152600061182a60208301848661165b565b949350505050565b6000825160005b818110156118535760208186018101518583015201611839565b506000920191825250919050565b60006020828403121561187357600080fd5b815180151581146117b057600080fd5b6000826118a057634e487b7160e01b600052601260045260246000fd5b500490565b8082018082111561163c5761163c61161356fea2646970667358221220053eabba76dca1343802fc064f27190fd1ad0f7ab4d79d53998cc0d3ba5e6f2f64736f6c634300081c0033",
  "linkReferences": {},
  "deployedLinkReferences": {}
}