{
  "_format": "hh-sol-artifact-1",
  "contractName": "TrustToken",
  "sourceName": "contracts/TrustToken.sol",
  "abi": [
    {
      "inputs": [
        {
          "internalType": "uint256",
          "name": "rate",
          "type": "uint256"
        }
      ],
      "stateMutability": "nonpayable",
      "type": "constructor"
    },
    {
      "inputs": [
        {
          "internalType": "address",
          "name": "spender",
          "type": "address"
        },
        {
          "internalType": "uint256",
          "name": "allowance",
          "type": "uint256"
        },
        {
          "internalType": "uint256",
          "name": "needed",
          "type": "uint256"
        }
      ],
      "name": "ERC20InsufficientAllowance",
      "type": "error"
    },
    {
      "inputs": [
        {
          "internalType": "address",
          "name": "sender",
          "type": "address"
        },
        {
          "internalType": "uint256",
          "name": "balance",
          "type": "uint256"
        },
        {
          "internalType": "uint256",
          "name": "needed",
          "type": "uint256"
        }
      ],
      "name": "ERC20InsufficientBalance",
      "type": "error"
    },
    {
      "inputs": [
        {
          "internalType": "address",
          "name": "approver",
          "type": "address"
        }
      ],
      "name": "ERC20InvalidApprover",
      "type": "error"
    },
    {
      "inputs": [
        {
          "internalType": "address",
          "name": "receiver",
          "type": "address"
        }
      ],
      "name": "ERC20InvalidReceiver",
      "type": "error"
    },
    {
      "inputs": [
        {
          "internalType": "address",
          "name": "sender",
          "type": "address"
        }
      ],
      "name": "ERC20InvalidSender",
      "type": "error"
    },
    {
      "inputs": [
        {
          "internalType": "address",
          "name": "spender",
          "type": "address"
        }
      ],
      "name": "ERC20InvalidSpender",
      "type": "error"
    },
    {
      "inputs": [],
      "name": "ReentrancyGuardReentrantCall",
      "type": "error"
    },
    {
      "anonymous": false,
      "inputs": [
        {
          "indexed": true,
          "internalType": "address",
          "name": "owner",
          "type": "address"
        },
        {
          "indexed": true,
          "internalType": "address",
          "name": "spender",
          "type": "address"
        },
        {
          "indexed": false,
          "internalType": "uint256",
          "name": "value",
          "type": "uint256"
        }
      ],
      "name": "Approval",
      "type": "event"
    },
    {
      "anonymous": false,
      "inputs": [
        {
          "indexed": true,
          "internalType": "address",
          "name": "from",
          "type": "address"
        },
        {
          "indexed": true,
          "internalType": "address",
          "name": "to",
          "type": "address"
        },
        {
          "indexed": false,
          "internalType": "uint256",
          "name": "value",
          "type": "uint256"
        }
      ],
      "name": "Transfer",
      "type": "event"
    },
    {
      "inputs": [
        {
          "internalType": "address",
          "name": "owner",
          "type": "address"
        },
        {
          "internalType": "address",
          "name": "spender",
          "type": "address"
        }
      ],
      "name": "allowance",
      "outputs": [
        {
          "internalType": "uint256",
          "name": "",
          "type": "uint256"
        }
      ],
      "stateMutability": "view",
      "type": "function"
    },
    {
      "inputs": [
        {
          "internalType": "address",
          "name": "spender",
          "type": "address"
        },
        {
          "internalType": "uint256",
          "name": "value",
          "type": "uint256"
        }
      ],
      "name": "approve",
      "outputs": [
        {
          "internalType": "bool",
          "name": "",
          "type": "bool"
        }
      ],
      "stateMutability": "nonpayable",
      "type": "function"
    },
    {
      "inputs": [
        {
          "internalType": "address",
          "name": "account",
          "type": "address"
        }
      ],
      "name": "balanceOf",
      "outputs": [
        {
          "internalType": "uint256",
          "name": "",
          "type": "uint256"
        }
      ],
      "stateMutability": "view",
      "type": "function"
    },
    {
      "inputs": [],
      "name": "decimals",
      "outputs": [
        {
          "internalType": "uint8",
          "name": "",
          "type": "uint8"
        }
      ],
      "stateMutability": "view",
      "type": "function"
    },
    {
      "inputs": [],
      "name": "ethToTokenRate",
      "outputs": [
        {
          "internalType": "uint256",
          "name": "",
          "type": "uint256"
        }
      ],
      "stateMutability": "view",
      "type": "function"
    },
    {
      "inputs": [],
      "name": "mint",
      "outputs": [],
      "stateMutability": "payable",
      "type": "function"
    },
    {
      "inputs": [],
      "name": "name",
      "outputs": [
        {
          "internalType": "string",
          "name": "",
          "type": "string"
        }
      ],
      "stateMutability": "view",
      "type": "function"
    },
    {
      "inputs": [],
      "name": "symbol",
      "outputs": [
        {
          "internalType": "string",
          "name": "",
          "type": "string"
        }
      ],
      "stateMutability": "view",
      "type": "function"
    },
    {
      "inputs": [],
      "name": "totalSupply",
      "outputs": [
        {
          "internalType": "uint256",
          "name": "",
          "type": "uint256"
        }
      ],
      "stateMutability": "view",
      "type": "function"
    },
    {
      "inputs": [
        {
          "internalType": "address",
          "name": "to",
          "type": "address"
        },
        {
          "internalType": "uint256",
          "name": "value",
          "type": "uint256"
        }
      ],
      "name": "transfer",
      "outputs": [
        {
          "internalType": "bool",
          "name": "",
          "type": "bool"
        }
      ],
      "stateMutability": "nonpayable",
      "type": "function"
    },
    {
      "inputs": [
        {
          "internalType": "address",
          "name": "sender",
          "type": "address"
        },
        {
          "internalType": "address",
          "name": "recipient",
          "type": "address"
        },
        {
          "internalType": "uint256",
          "name": "amount",
          "type": "uint256"
        }
      ],
      "name": "transferFrom",
      "outputs": [
        {
          "internalType": "bool",
          "name": "",
          "type": "bool"
        }
      ],
      "stateMutability": "nonpayable",
      "type": "function"
    }
  ],
  "bytecode": "0x60a060405234801561001057600080fd5b50604051610b63380380610b6383398101604081905261002f916100df565b6040518060400160405280600b81526020016a2a393ab9ba102a37b5b2b760a91b81525060405180604001604052806004815260200163151494d560e21b815250816003908161007f9190610197565b50600461008c8282610197565b5050600160055550806100d75760405162461bcd60e51b815260206004820152600f60248201526e052617465206d757374206265203e3608c1b604482015260640160405180910390fd5b608052610255565b6000602082840312156100f157600080fd5b5051919050565b634e487b7160e01b600052604160045260246000fd5b600181811c9082168061012257607f821691505b60208210810361014257634e487b7160e01b600052602260045260246000fd5b50919050565b601f82111561019257806000526020600020601f840160051c8101602085101561016f5750805b601f840160051c820191505b8181101561018f576000815560010161017b565b50505b505050565b81516001600160401b038111156101b0576101b06100f8565b6101c4816101be845461010e565b84610148565b6020601f8211600181146101f857600083156101e05750848201515b600019600385901b1c1916600184901b17845561018f565b600084815260208120601f198516915b828110156102285787850151825560209485019460019092019101610208565b50848210156102465786840151600019600387901b60f8161c191681555b50505050600190811b01905550565b6080516108ec61027760003960008181610224015261034901526108ec6000f3fe60806040526004361061009c5760003560e01c8063313ce56711610064578063313ce5671461014557806370a082311461016157806395d89b4114610197578063a9059cbb146101ac578063dd62ed3e146101cc578063e09adc701461021257600080fd5b806306fdde03146100a1578063095ea7b3146100cc5780631249c58b146100fc57806318160ddd1461010657806323b872dd14610125575b600080fd5b3480156100ad57600080fd5b506100b6610246565b6040516100c39190610703565b60405180910390f35b3480156100d857600080fd5b506100ec6100e736600461076d565b6102d8565b60405190151581526020016100c3565b6101046102f2565b005b34801561011257600080fd5b506002545b6040519081526020016100c3565b34801561013157600080fd5b506100ec610140366004610797565b610387565b34801561015157600080fd5b50604051601281526020016100c3565b34801561016d57600080fd5b5061011761017c3660046107d4565b6001600160a01b031660009081526020819052604090205490565b3480156101a357600080fd5b506100b6610411565b3480156101b857600080fd5b506100ec6101c736600461076d565b610420565b3480156101d857600080fd5b506101176101e73660046107f6565b6001600160a01b03918216600090815260016020908152604080832093909416825291909152205490565b34801561021e57600080fd5b506101177f000000000000000000000000000000000000000000000000000000000000000081565b60606003805461025590610829565b80601f016020809104026020016040519081016040528092919081815260200182805461028190610829565b80156102ce5780601f106102a3576101008083540402835291602001916102ce565b820191906000526020600020905b8154815290600101906020018083116102b157829003601f168201915b5050505050905090565b6000336102e681858561042e565b60019150505b92915050565b6102fa610440565b600034116103425760405162461bcd60e51b815260206004820152601060248201526f14d95b9908115512081d1bc81b5a5b9d60821b60448201526064015b60405180910390fd5b600061036e7f000000000000000000000000000000000000000000000000000000000000000034610879565b905061037a338261046a565b506103856001600555565b565b60006103948484846104a4565b60006103a085336101e7565b9050828110156103f25760405162461bcd60e51b815260206004820152601d60248201527f45524332303a20696e73756666696369656e7420616c6c6f77616e63650000006044820152606401610339565b61040685336104018685610890565b61042e565b506001949350505050565b60606004805461025590610829565b6000336102e68185856104a4565b61043b8383836001610503565b505050565b60026005540361046357604051633ee5aeb560e01b815260040160405180910390fd5b6002600555565b6001600160a01b0382166104945760405163ec442f0560e01b815260006004820152602401610339565b6104a0600083836105d9565b5050565b6001600160a01b0383166104ce57604051634b637e8f60e11b815260006004820152602401610339565b6001600160a01b0382166104f85760405163ec442f0560e01b815260006004820152602401610339565b61043b8383836105d9565b6001600160a01b03841661052d5760405163e602df0560e01b815260006004820152602401610339565b6001600160a01b03831661055757604051634a1406b160e11b815260006004820152602401610339565b6001600160a01b03808516600090815260016020908152604080832093871683529290522082905580156105d357826001600160a01b0316846001600160a01b03167f8c5be1e5ebec7d5bd14f71427d1e84f3dd0314c0f7b2291e5b200ac8c7c3b925846040516105ca91815260200190565b60405180910390a35b50505050565b6001600160a01b0383166106045780600260008282546105f991906108a3565b909155506106769050565b6001600160a01b038316600090815260208190526040902054818110156106575760405163391434e360e21b81526001600160a01b03851660048201526024810182905260448101839052606401610339565b6001600160a01b03841660009081526020819052604090209082900390555b6001600160a01b038216610692576002805482900390556106b1565b6001600160a01b03821660009081526020819052604090208054820190555b816001600160a01b0316836001600160a01b03167fddf252ad1be2c89b69c2b068fc378daa952ba7f163c4a11628f55a4df523b3ef836040516106f691815260200190565b60405180910390a3505050565b602081526000825180602084015260005b818110156107315760208186018101516040868401015201610714565b506000604082850101526040601f19601f83011684010191505092915050565b80356001600160a01b038116811461076857600080fd5b919050565b6000806040838503121561078057600080fd5b61078983610751565b946020939093013593505050565b6000806000606084860312156107ac57600080fd5b6107b584610751565b92506107c360208501610751565b929592945050506040919091013590565b6000602082840312156107e657600080fd5b6107ef82610751565b9392505050565b6000806040838503121561080957600080fd5b61081283610751565b915061082060208401610751565b90509250929050565b600181811c9082168061083d57607f821691505b60208210810361085d57634e487b7160e01b600052602260045260246000fd5b50919050565b634e487b7160e01b600052601160045260246000fd5b80820281158282048414176102ec576102ec610863565b818103818111156102ec576102ec610863565b808201808211156102ec576102ec61086356fea26469706673582212209eda61479752154394af171c9c8c4042ee6e9f3c9e2931aba99003a814b0faa364736f6c634300081c0033",
  "linkReferences": {},
  "deployedLinkReferences": {}
}